:020000040000FA
:04000000E3EF6EF0CC
:10DD4000C282120001C0C8F002C0C9F0120001C0B6
:10DD5000CCF002C0CDF0120001C0CAF002C0CBF07E
:10DD600012000A50D76E09C0D6FF1200026E025090
:10DD70000EEC6FF01200C450046E036AC35003240B
:10DD8000016E000E0420026E1200C2A2CAEF6EF0F5
:10DD9000CDEF6EF0010ECEEF6EF0000E12009EBAC7
:10DDA000D4EF6EF0D7EF6EF0010ED8EF6EF0000EEC
:10DDB0001200F2B4DEEF6EF0E1EF6EF0010EE2EF72
:10DDC0006EF0000E120000EEC0F0320EEE6AE806B1
:10DDD000FDE15F6A000103EF79F0010EC26E000EF3
:10DDE000C16E260EC06E000EC36E000EC46E120011
:10DDF00089EC6FF031EC6FF0EDEC6EF09EEC6FF0B3
:10DE0000EAEC6FF01200046E045025EC6FF0025043
:10DE100025EC6FF0035025EC6FF01200016E9EA808
:10DE200014EF6FF016EF6FF00FEF6FF001C0ADFF62
:10DE30001200026E02C001F001460146C2500118F4
:10DE4000830B0118C26EC2801200016E9EA82BEFD8
:10DE50006FF02DEF6FF026EF6FF09E9801C0ADFFD1
:10DE60001200700ED36E040ED26E400E9B6ED2AEB8
:10DE70003CEF6FF03EEF6FF037EF6FF01200D6CF50
:10DE800007F0D7CF08F00850036E0750056E03C0A7
:10DE900006F005C001F006C002F0120001500302B6
:10DEA000F3CF05F0F4CF06F001500402F35006263C
:10DEB00002500302F350062605C001F006C002F02E
:10DEC00012009EAA66EF6FF068EF6FF061EF6FF0DF
:10DED000000E5F6EABA26FEF6FF071EF6FF073EF3C
:10DEE0006FF0AB98AB88AE5012006A0E0001706FF5
:10DEF000000E716F000E606F000E616F68C062F0FF
:10DF000069C063F0700E646F000E656FA1EC70F075
:10DF10001200000E896E000E8A6E000E8B6E9268E3
:10DF20009368BB0E946E3C0E0F013A6F3F0E396F33
:10DF3000230E386F000E616EF18E1200D59CFC0E20
:10DF4000D76E170ED66ED650D7CF01F0026A01C039
:10DF500002F0016A01100001D06F0250D16FF294FB
:10DF6000930ED56E120001C003F002C004F0BBEFA7
:10DF70006FF0014A022A01C0D9FF02C0DAFFDF5068
:10DF8000D8A4C5EF6FF0C7EF6FF0B9EF6FF0035093
:10DF9000015C016E04500258026E1200D00E036E36
:10DFA000FF0E046E01C005F002C006F00350052606
:10DFB0000450062206500AE10A0E055CD8A0E3EFE1
:10DFC0006FF0E6EF6FF0010EE7EF6FF0000E016EFD
:10DFD000026A1200080EB86E900EAB6E240EAC6E84
:10DFE000820EAF6E060EB06E000E016E000E026E57
:10DFF000A7EC6EF0000E016E000E026EACEC6EF03F
:10E00000000E016E000E026EA2EC6EF0000E5F6E4E
:10E01000120014BE16EF70F0145006E11304D8B0CD
:10E0200014EF70F016EF70F024EF70F013C015F0DD
:10E0300014C016F0151E161E154A162A15C013F028
:10E0400016C014F028EF70F013C013F014C014F0D1
:10E050001200000E126E000E116E3AEF70F010C03A
:10E0600003F0046A0EC005F00FC006F0D3EC70F0A8
:10E07000114A122A11500C24D96E12500D20DA6E5A
:10E08000DF50106E1050D8A448EF70F04AEF70F0D7
:10E090002FEF70F01200010E076E200E0118021013
:10E0A000D8B455EF70F057EF70F070EF70F0F70ED6
:10E0B000036EFF0E046E01C005F002C006F00350AF
:10E0C000052604500622065009E1050E055CD8A07D
:10E0D0006CEF70F06EEF70F070EF70F0000E076E86
:10E0E00007C001F0026A12000001C251C311D8A496
:10E0F0007CEF70F07EEF70F084EF70F0C2C021F022
:10E10000C3C022F08AEF70F0FF0EC225216EFF0E11
:10E11000C321226E20C0D2F0000ED36F1EC013F0B8
:10E120001FC014F0D20E156E000E166E21C017F02F
:10E1300022C018F01EEC71F013C01EF014C01FF0C6
:10E14000120062C066F063C067F0000E0001C16F8C
:10E15000000EC06FBFEF70F060C042F061C043F0CE
:10E16000660E446E000E456E64C046F065C047F012
:10E1700016EC77F042500001C0274350C12366C01F
:10E18000F6FF67C0F7FFF86A0800F5500009D8A449
:10E19000CCEF70F0CEEF70F0ACEF70F0C0C060F07C
:10E1A000C1C061F0120005500610D8B4DAEF70F06B
:10E1B000DCEF70F0E5EF70F005500610D8A4E3EF47
:10E1C00070F0E5EF70F0EAEF70F00350B6EC6EF02F
:10E1D0001DEF71F020EE04F00550D9260650DA222A
:10E1E000DE50DE10D8B4F7EF70F0F9EF70F014EFF6
:10E1F00071F020EE04F00550D9260650DA2210EE18
:10E2000002F00550E1260650E222DE50E65CE650C0
:10E21000800A0B6EDE50800A0B58D8B012EF71F0F6
:10E2200014EF71F01DEF71F020EE02F00550D926C9
:10E230000650DA22DE2A000EDD2212000001C6A1FD
:10E2400024EF71F026EF71F030EF71F015C00CF093
:10E2500016C00DF013C00EF014C00FF029EC70F0D2
:10E2600018BE35EF71F037EF71F03DEF71F017C068
:10E270001CF018C01DF041EF71F0000E1D6E000E75
:10E280001C6E000E1B6E000E1A6E53EF71F0000E26
:10E29000046E200E036E13C005F014C006F0D3EC1C
:10E2A00070F01A4A1B2A1C501A5C1B50800A196E07
:10E2B0001D50800A1958D8A060EF71F062EF71F01C
:10E2C00047EF71F00001C6B168EF71F06AEF71F0CD
:10E2D00074EF71F015C00CF016C00DF013C00EF005
:10E2E00014C00FF029EC70F015C001F016C002F058
:10E2F000B3EC6FF01C500124136E1D500220146EFD
:10E30000120009500A100B100C100D100E100F10F7
:10E310001010D8B48EEF71F090EF71F0D8EF71F06B
:10E32000010E116E9EEF71F0D89009360A360B3649
:10E330000C360D360E360F361036112A10AEA3EFFE
:10E3400071F0A5EF71F094EF71F00950015C0A5083
:10E3500002580B5003580C5004580D5005580E50DD
:10E3600006580F50075810500858D8A0BAEF71F04F
:10E37000BCEF71F0CCEF71F00950015E0A50025A07
:10E380000B50035A0C50045A0D50055A0E50065AA1
:10E390000F50075A1050085AD89010320F320E32D0
:10E3A0000D320C320B320A320932112EA5EF71F008
:10E3B00001C001F002C002F003C003F004C004F089
:10E3C00005C005F006C006F007C007F008C008F059
:10E3D000120020EE11F0070EDE6AE806FDE2095099
:10E3E0000A100B100C100D100E100F101010D8B4D6
:10E3F000FCEF71F0FEEF71F050EF72F0010E196E4C
:10E400000CEF72F0D89009360A360B360C360D3602
:10E410000E360F361036192A10AE11EF72F013EFC8
:10E4200072F002EF72F0D8901136123613361436AD
:10E4300015361636173618360950015C0A50025840
:10E440000B5003580C5004580D5005580E500658E8
:10E450000F50075810500858D8A031EF72F033EF22
:10E4600072F044EF72F00950015E0A50025A0B50EC
:10E47000035A0C50045A0D50055A0E50065A0F50AC
:10E48000075A1050085A1180D89010320F320E32AD
:10E490000D320C320B320A320932192E13EF72F0A0
:10E4A00011C001F012C002F013C003F014C004F058
:10E4B00015C005F016C006F017C007F018C008F028
:10E4C0001200000E126E08BE6AEF72F068EF72F072
:10E4D0007CEF72F0081E071E061E051E041E031E9A
:10E4E000021E016C000E02220322042205220622D3
:10E4F00007220822010E126E10BE83EF72F081EF28
:10E5000072F093EF72F0101E0F1E0E1E0D1E0C1EE9
:10E510000B1E0A1E096C000E0A220B220C220D2271
:10E520000E220F22102209500A100B100C100D1091
:10E530000E100F101010D8B4A0EF72F0A2EF72F00E
:10E54000EAEF72F0010E116EB0EF72F0D89009365A
:10E550000A360B360C360D360E360F361036112AAB
:10E5600010AEB5EF72F0B7EF72F0A6EF72F009508F
:10E57000015C0A5002580B5003580C5004580D50BF
:10E5800005580E5006580F50075810500858D8A07C
:10E59000CCEF72F0CEEF72F0DEEF72F00950015E58
:10E5A0000A50025A0B50035A0C50045A0D50055A87
:10E5B0000E50065A0F50075A1050085AD890103271
:10E5C0000F320E320D320C320B320A320932112E5A
:10E5D000B7EF72F01250D8B4F0EF72F0F2EF72F0C1
:10E5E00002EF73F0081E071E061E051E041E031E02
:10E5F000021E016C000E02220322042205220622C2
:10E600000722082201C001F002C002F003C003F09B
:10E6100004C004F005C005F006C006F007C007F00E
:10E6200008C008F01200000E126E10BE1CEF73F04E
:10E630001AEF73F02EEF73F0101E0F1E0E1E0D1E3C
:10E640000C1E0B1E0A1E096C000E0A220B220C2245
:10E650000D220E220F221022010E126E08BE35EF7F
:10E6600073F033EF73F047EF73F0081E071E061EBA
:10E67000051E041E031E021E016C000E0222032250
:10E6800004220522062207220822010E121A20EE79
:10E6900013F0070EDE6AE806FDE209500A100B10BF
:10E6A0000C100D100E100F101010D8B45AEF73F09C
:10E6B0005CEF73F0AEEF73F0010E116E6AEF73F062
:10E6C000D89009360A360B360C360D360E360F3614
:10E6D0001036112A10AE6FEF73F071EF73F060EF28
:10E6E00073F0D8901336143615361636173618369A
:10E6F00019361A360950015C0A5002580B5003585B
:10E700000C5004580D5005580E5006580F5007581D
:10E7100010500858D8A08FEF73F091EF73F0A2EF6C
:10E7200073F00950015E0A50025A0B50035A0C5004
:10E73000045A0D50055A0E50065A0F50075A1050E1
:10E74000085A1380D89010320F320E320D320C322C
:10E750000B320A320932112E71EF73F01250D8B415
:10E76000B4EF73F0B6EF73F0C6EF73F01A1E191E14
:10E77000181E171E161E151E141E136C000E1422D2
:10E78000152216221722182219221A2213C001F06C
:10E7900014C002F015C003F016C004F017C005F055
:10E7A00018C006F019C007F01AC008F01200000ED9
:10E7B000166E000E156E000E0F6E000E0E6EE3EF5D
:10E7C00073F0084A092A010E146E08C0F6FF09C04A
:10E7D000F7FFF86A0800F550200AD8B4F2EF73F09A
:10E7E000F4EF73F012EF74F0F70E0A6EFF0E0B6E7B
:10E7F00008C0F6FF09C0F7FFF86A0800F5500C6E74
:10E800000D6A0A500C260B500D220D5009E1050E21
:10E810000C5CD8A00EEF74F010EF74F012EF74F0EF
:10E82000000E146E14C010F0116A10501110D8A40C
:10E830001CEF74F01EEF74F0E1EF73F028EF74F04A
:10E84000000E0F6E010E0E6E084A092A5FEF74F07B
:10E8500008C0F6FF09C0F7FFF86A0800F5500A6E15
:10E860000B6A0B50000AD8B438EF74F05FEF74F005
:10E870000A502B0AD8B424EF74F0060AD8B420EF5B
:10E8800074F05FEF74F015C001F016C002F0000ED6
:10E89000046E0A0E036E4EEC6FF008C0F6FF09C05E
:10E8A000F7FFF86A0800F550015E000E025A300EBC
:10E8B0000124156E000E0220166E24EF74F0D00EA7
:10E8C0000A6EFF0E0B6E08C0F6FF09C0F7FFF86A6C
:10E8D0000800F5500C6E0D6A0A500C260B500D22E4
:10E8E0000D500AE10A0E0C5CD8A079EF74F07CEFB1
:10E8F00074F0010E7DEF74F0000E126E136A125068
:10E900001310D8A486EF74F088EF74F043EF74F01E
:10E910000E500F10D8A48FEF74F091EF74F09FEFAA
:10E9200074F015C00AF016C00BF00A1E0B1E0A4A3E
:10E930000B2A0AC008F00BC009F0A3EF74F015C051
:10E9400008F016C009F012000001C5BFAAEF74F06C
:10E95000ACEF74F0ADEF74F0C693C5BFBAEF74F0CE
:10E96000C55106E1C405D8B0B8EF74F0BAEF74F041
:10E97000C0EF74F0000E316E010E306EC4EF74F013
:10E98000C4C030F0C5C031F0C2C032F0C3C033F0F3
:10E9900020C034F021C035F022C036F023C037F05B
:10E9A00024C038F025C039F026C03AF027C03BF02B
:10E9B000000E3D6E1F0E3C6E000EF16F56EF75F0AF
:10E9C0003C06D8A03D06D20E3C24D96E000E3D2058
:10E9D000DA6E34C001F035C002F036C003F037C043
:10E9E00004F038C005F039C006F03AC007F03BC06B
:10E9F00008F00A0E096E000E0A6E000E0B6E000E75
:10EA00000C6E000E0D6E000E0E6E000E0F6E000EE0
:10EA1000106E81EC71F001C028F002C029F003C033
:10EA20002AF004C02BF005C02CF006C02DF007C062
:10EA30002EF008C02FF02850300FDF6E3006D8A01F
:10EA400031063206D8A0330634C001F035C002F0DA
:10EA500036C003F037C004F038C005F039C006F006
:10EA60003AC007F03BC008F00A0E096E000E0A6EAD
:10EA7000000E0B6E000E0C6E000E0D6E000E0E6E74
:10EA8000000E0F6E000E106EE9EC71F001C034F054
:10EA900002C035F003C036F004C037F005C038F0CE
:10EAA00006C039F007C03AF008C03BF03C503D10BA
:10EAB000D8B45DEF75F05FEF75F090EF75F03450FE
:10EAC000351036103710381039103A103B10D8A4D2
:10EAD0006CEF75F06EEF75F0E0EF74F031BE7BEF28
:10EAE00075F0315006E13004D8B079EF75F07BEF66
:10EAF00075F0E0EF74F033BE86EF75F0335008E147
:10EB00003204D8A086EF75F088EF75F090EF75F0BD
:10EB10000001C6B38EEF75F090EF75F0E0EF74F082
:10EB20001EC013F01FC014F0D20E3C24156E000E50
:10EB30003D20166E32C017F033C018F01EEC71F095
:10EB400013C01EF014C01FF0120020C038F021C006
:10EB500039F022C03AF023C03BF024C03CF025C07D
:10EB60003DF026C03EF027C03FF03FBEBAEF75F043
:10EB7000BDEF75F0010EBEEF75F0000E366E376A10
:10EB800036503710D8B4C7EF75F0C9EF75F0D9EF2C
:10EB900075F03F1E3E1E3D1E3C1E3B1E3A1E391E9A
:10EBA000386C000E39223A223B223C223D223E2282
:10EBB0003F220001C5BFDFEF75F0E1EF75F0E2EF36
:10EBC00075F0C693C5BFEFEF75F0C55106E1C405FA
:10EBD000D8B0EDEF75F0EFEF75F0F5EF75F0000ED2
:10EBE000336E010E326EF9EF75F0C4C032F0C5C05D
:10EBF00033F0C2C034F0C3C035F036503710D8A45B
:10EC000004EF76F006EF76F00DEF76F0C6A50BEF89
:10EC100076F00DEF76F010EF76F03406D8A03506DA
:10EC2000000E416E1F0E406E000EF16F94EF76F0F5
:10EC30004006D8A04106D20E4024D96E000E4120D5
:10EC4000DA6E38C001F039C002F03AC003F03BC0C0
:10EC500004F03CC005F03DC006F03EC007F03FC0E8
:10EC600008F00A0E096E000E0A6E000E0B6E000E02
:10EC70000C6E000E0D6E000E0E6E000E0F6E000E6E
:10EC8000106E61EC72F001C028F002C029F003C0E0
:10EC90002AF004C02BF005C02CF006C02DF007C0F0
:10ECA0002EF008C02FF028C013F02AC014F009EC91
:10ECB00070F01350300FDF6E3206D8A033063406E2
:10ECC000D8A0350638C001F039C002F03AC003F0D0
:10ECD0003BC004F03CC005F03DC006F03EC007F06C
:10ECE0003FC008F00A0E096E000E0A6E000E0B6E91
:10ECF000000E0C6E000E0D6E000E0E6E000E0F6EEE
:10ED0000000E106E13EC73F001C038F002C039F041
:10ED100003C03AF004C03BF005C03CF006C03DF033
:10ED200007C03EF008C03FF041BE9FEF76F0415073
:10ED300008E14004D8A09FEF76F0A1EF76F0D2EF83
:10ED400076F0385039103A103B103C103D103E1010
:10ED50003F10D8A4AEEF76F0B0EF76F018EF76F073
:10ED600033BEBDEF76F0335006E13204D8B0BBEFCE
:10ED700076F0BDEF76F018EF76F035BEC8EF76F09E
:10ED8000355008E13404D8A0C8EF76F0CAEF76F029
:10ED9000D2EF76F00001C6B3D0EF76F0D2EF76F086
:10EDA00018EF76F036503710D8A4D9EF76F0DBEFB5
:10EDB00076F0E3EF76F00001C6A5E1EF76F0E3EF41
:10EDC00076F001EF77F04006D8A0410636503710B4
:10EDD000D8A4EDEF76F0EFEF76F0F5EF76F0000ED9
:10EDE000316E2B0E306EF9EF76F0000E316E2D0E77
:10EDF000306ED20E4024D96E000E4120DA6E30C043
:10EE0000DFFF1EC013F01FC014F0D20E4024156E99
:10EE1000000E4120166E34C017F035C018F01EECFD
:10EE200071F013C01EF014C01FF0120044C0D9FFCF
:10EE300045C0DAFFDECFF6FFDDCFF7FFF86A080046
:10EE4000F550250AD8A427EF77F029EF77F0E6EF01
:10EE500078F044C0D9FF45C0DAFFDE2A000EDD227B
:10EE6000000E0001C36F000EC26FC2C0C6F0C3C067
:10EE7000C7F0C469C56944C0D9FF45C0DAFFDECF19
:10EE8000F6FFDDCFF7FFF86A0800F5502A0AD8A48C
:10EE90004CEF77F04EEF77F077EF77F044C0D9FF83
:10EEA00045C0DAFFDE2A000EDD2246C0D9FF47C08A
:10EEB000DAFFDFCF48F0020EDE26DFCF49F0000E8A
:10EEC000DD2248C0D9FF49C0DAFFDECFC2F0DDCF76
:10EED000C3F0C3BF70EF77F06EEF77F0BBEF77F062
:10EEE000C681C26DC31FD8B0C32BBBEF77F044C03F
:10EEF000D9FF45C0DAFFDECF08F0DDCF09F0D7EC4F
:10EF000073F008C0C2F009C0C3F08EEF77F044C0C0
:10EF1000D9FF45C0DAFFDE2A000EDD22D00E486E92
:10EF2000FF0E496E44C0D9FF45C0DAFFDECFF6FFC1
:10EF3000DDCFF7FFF86A0800F5504A6E4B6A48507B
:10EF40004A2649504B224B500AE10A0E4A5CD8A08F
:10EF5000ACEF77F0AFEF77F0010EB0EF77F0000E87
:10EF60005C6E5D6A5C505D10D8A4B9EF77F0BBEFC2
:10EF700077F087EF77F044C0D9FF45C0DAFFDECFE6
:10EF8000F6FFDDCFF7FFF86A0800F550630AD8A452
:10EF9000CCEF77F0CEEF77F0F5EF77F044C0D9FF04
:10EFA00045C0DAFFDE2A000EDD2246C0D9FF47C089
:10EFB000DAFFDFCF48F0020EDE26DFCF49F0000E89
:10EFC000DD2248C0D9FF49C0DAFFDF505E6E42C083
:10EFD0001EF043C01FF05EC020F074EC70F01EC045
:10EFE00042F01FC043F002EF79F044C0D9FF45C0A2
:10EFF000DAFFDECFF6FFDDCFF7FFF86A0800F55045
:10F00000640AD8B406EF78F008EF78F01BEF78F0D8
:10F0100044C0D9FF45C0DAFFDECFF6FFDDCFF7FFF2
:10F02000F86A0800F550690AD8A419EF78F01BEFC8
:10F0300078F05BEF78F044C0D9FF45C0DAFFDE2AF4
:10F04000000EDD2246C0D9FF47C0DAFFDFCF48F00F
:10F05000020EDE26DFCF49F0000EDD2248C0D9FFC8
:10F0600049C0DAFFDECF4CF0DDCF4DF0000E4DBED3
:10F07000FF0E4E6E4F6E506E516E526E536E42C00A
:10F080001EF043C01FF04CC020F04DC021F04EC018
:10F0900022F04FC023F050C024F051C025F052C0E0
:10F0A00026F053C027F0A5EC75F01EC042F01FC03B
:10F0B00043F002EF79F044C0D9FF45C0DAFFDECF5C
:10F0C000F6FFDDCFF7FFF86A0800F550750AD8A4FF
:10F0D0006CEF78F06EEF78F0AFEF78F044C0D9FFC6
:10F0E00045C0DAFFDE2A000EDD2246C0D9FF47C048
:10F0F000DAFFDFCF48F0020EDE26DFCF49F0000E48
:10F10000DD2248C0D9FF49C0DAFFDECF4AF0DDCFAB
:10F110004BF04AC054F04BC055F0566A576A586AD3
:10F12000596A5A6A5B6A42C01EF043C01FF054C05D
:10F1300020F055C021F056C022F057C023F058C02F
:10F1400024F059C025F05AC026F05BC027F0A4EC8B
:10F1500074F01EC042F01FC043F002EF79F044C0CB
:10F16000D9FF45C0DAFFDECFF6FFDDCFF7FFF86A43
:10F170000800F550250AD8A4C0EF78F0C2EF78F067
:10F18000D9EF78F044C0D9FF45C0DAFFDE2A000E7F
:10F19000DD22000E046E250E036E42C005F043C052
:10F1A00006F0D3EC70F0000E436E010E426E02EFDB
:10F1B00079F044C0D9FF45C0DAFFDE2A000EDD2217
:10F1C000000E436E000E426E02EF79F044C0D9FF8C
:10F1D00045C0DAFFDECFF6FFDDCFF7FFF86A0800A3
:10F1E000F550036E046A42C005F043C006F0D3EC4C
:10F1F00070F044C0D9FF45C0DAFFDE2A000EDD22E0
:10F20000D3EF78F01200000E0001B76F3F0EB96F18
:10F210001D0EB86F050EBB6F030EBE6FE80EBD6FFF
:10F22000F8EC6EF0010E19EC6FF0560E0001686FED
:10F23000FF0E696F75EC6FF0190E0001686FFF0E1D
:10F24000696F75EC6FF0ED0E0001686FFE0E696F6F
:10F2500075EC6FF0F50E0001686FFF0E696F75ECCD
:10F260006FF0A0EC6EF0C5EC6EF00009D8B43BEF87
:10F2700079F03DEF79F033EF79F0BBEC6EF002C03E
:10F2800001F0026A01500001B96FCFEC6EF0000985
:10F29000D8B44DEF79F04FEF79F045EF79F061ECAC
:10F2A0006FF00001BA6F95EF7CF0420E686FFB0EB5
:10F2B000696F75EC6FF0D60E0001686FFE0E696F16
:10F2C000B9C06AF06B6BB8C06CF06D6B75EC6FF029
:10F2D000A10E0001686FFF0E696FBBC06AF06B6B17
:10F2E00075EC6FF08C0E0001686FFC0E696FBDC08D
:10F2F0006AF0BEC06BF0BDC06CF0BEC06DF075ECC6
:10F300006FF0420E0001686FFB0E696F75EC6FF0D5
:10F31000D20E0001686FFF0E696F75EC6FF0EE0E94
:10F320000001686FFF0E696F75EC6FF0030E00014E
:10F33000686FFF0E696F75EC6FF05E0E0001686F0D
:10F34000FE0E696F75EC6FF0970E0001686FFD0E91
:10F35000696F75EC6FF02A0E0001686FFD0E696F22
:10F3600075EC6FF0090E0001686FFC0E696F75ECAB
:10F370006FF0A80E0001686FFB0E696F75EC6FF0FF
:10F38000430E0001686FFA0E696F000E6B6F400E3E
:10F390006A6FBDC06CF0BEC06DF075EC6FF0F40E1E
:10F3A0000001686FFD0E696F75EC6FF0420E000191
:10F3B000686FFB0E696F75EC6FF045EF79F0E10E49
:10F3C000686FFF0E696F75EC6FF045EF79F0000E16
:10F3D000BF6F950E686FFD0E696F75EC6FF00001E1
:10F3E000BF2B270EBF65F7EF79F0F9EF79F0E9EF62
:10F3F00079F0FF0045EF79F0000EBF6F950E686F52
:10F40000FD0E696F75EC6FF00001BF2B270EBF6515
:10F410000CEF7AF00EEF7AF0FEEF79F045EF79F02D
:10F42000B10E686FF90E696F75EC6FF0CFEC6EF08E
:10F430000009D8B41EEF7AF020EF7AF016EF7AF0D8
:10F4400061EC6FF0A0EC6EF0C5EC6EF00009D8B482
:10F450002CEF7AF02EEF7AF024EF7AF0BBEC6EF01E
:10F4600002C001F0026A01500001B96F040E686F1A
:10F47000FD0E696FB9C06AF06B6B75EC6FF045EF0C
:10F4800079F0FB0E686FF90E696F75EC6FF0CFECD9
:10F490006EF00009D8B44FEF7AF051EF7AF047EFF1
:10F4A0007AF061EC6FF0A0EC6EF0C5EC6EF0000944
:10F4B000D8B45DEF7AF05FEF7AF055EF7AF0BBECFD
:10F4C0006EF002C001F0026A01500001B86F500EE8
:10F4D000686FFD0E696FB8C06AF06B6B75EC6FF00A
:10F4E00045EF79F0640EBA19D8A479EF7AF07BEF82
:10F4F0007AF07EEF7AF0BB077FEF7AF0BB2BB20E8B
:10F50000686FFF0E696FBBC06AF06B6B75EC6FF0D4
:10F5100045EF79F0730EBA19D8A491EF7AF093EF12
:10F520007AF099EF7AF0640EBD5F000EBE5B9DEF3E
:10F530007AF0640EBD27000EBE23B50E686FFC0E78
:10F54000696FBDC06AF0BEC06BF0BDC06CF0BEC0DC
:10F550006DF075EC6FF045EF79F08B84A0EC6EF0F8
:10F560008B94C5EC6EF00009D8B4B9EF7AF0BBEF1C
:10F570007AF0B1EF7AF07D0E0001686FFF0E696FCF
:10F58000BBEC6EF0025000016A6F6B6B75EC6FF0B4
:10F5900045EF79F06A0E686FFF0E696F75EC6FF0DA
:10F5A000EEEF7AF03FEC6FF00001BD51015EBE510D
:10F5B000025AFF0E0124096EFF0E02200A6EB1EC02
:10F5C0006EF0F294A0EC6EF0D9EC6EF00009D8B4B5
:10F5D000ECEF7AF0EEEF7AF0E4EF7AF0BBEC6EF05D
:10F5E00002C001F0026A0001BB51B9C072F0736B36
:10F5F000725F000E735B0150725D02507359D8A0A8
:10F6000004EF7BF006EF7BF0D2EF7AF0000EBF6FD5
:10F61000770EBF25D96EDA6A000EDA22BBEC6EF0E7
:10F6200002C001F0026A0150DF6E3FEC6FF0000192
:10F63000BD51015EBE51025AFF0E0124096EFF0E3C
:10F6400002200A6EB1EC6EF0F2948B84A0EC6EF0A6
:10F650008B94D9EC6EF00009D8B431EF7BF033EF26
:10F660007BF029EF7BF00001BF2B3F0EBF653BEF26
:10F670007BF03DEF7BF008EF7BF0000EBF6FFA0EE2
:10F68000686FFF0E696F770EBF25D96EDA6A000EBC
:10F69000DA22DF50726F72516A6F6B6B75EC6FF02C
:10F6A0000001BF2B3F0EBF6558EF7BF05AEF7BF098
:10F6B0003FEF7BF03F0E686FFB0E696F75EC6FF0EC
:10F6C000000E0001BF6FBB51B8C072F0736B7227A0
:10F6D000000E7323770EBF25D96EDA6A000EDA2288
:10F6E000DF50746F756B7251745D7551800A766F5F
:10F6F0007351800A7659D8B080EF7BF082EF7BF0AF
:10F7000084EF7BF08DEF7BF0BF2B3F0EBF658BEF5F
:10F710007BF08DEF7BF063EF7BF0420E686FFF0EA6
:10F72000696FBFC06AF06B6B75EC6FF045EF79F0F5
:10F73000D70E686FFD0E696F75EC6FF03D0E00011E
:10F74000686FFC0E696F75EC6FF0440E0001686F16
:10F75000FE0E696F75EC6FF0A80E0001686FFE0E6B
:10F76000696F75EC6FF02E0E0001686FFF0E696F08
:10F7700075EC6FF0BF0E0001686FFE0E696F75ECDF
:10F780006FF0900E0001686FFE0E696F75EC6FF000
:10F790000F0E0001686FFE0E696F75EC6FF0C30EFF
:10F7A0000001686FFF0E696F75EC6FF0670E000166
:10F7B000686FFC0E696F75EC6FF0740E0001686F76
:10F7C000FD0E696F75EC6FF0B80E0001686FFD0EED
:10F7D000696F75EC6FF02A0E0001686FFE0E696F9D
:10F7E00075EC6FF0390E0001686FFC0E696F75ECF7
:10F7F0006FF0D90E0001686FFB0E696F75EC6FF04A
:10F800000E0E0001686FFB0E696F75EC6FF0870ECE
:10F810000001686FFA0E696F75EC6FF0CB0E000196
:10F82000686FFA0E696F75EC6FF0390E0001686F42
:10F83000FC0E696F75EC6FF0630E0001686FFC0ED3
:10F84000696F75EC6FF0DE0E0001686FFC0E696F7A
:10F8500075EC6FF0770E0001686FFE0E696F75EC46
:10F860006FF0760E0001686FFB0E696F75EC6FF03C
:10F87000010E0001BC6F000EB76F80B442EF7CF048
:10F8800044EF7CF03DEF7CF081EF7CF0BCC002F0F7
:10F89000690E036E900E03EC6FF03FEC6FF0AF0E4D
:10F8A0000124096E3C0E02200A6EB1EC6EF0F29457
:10F8B000D9EC6EF00009D8B460EF7CF062EF7CF018
:10F8C00058EF7CF0BCC002F0690E036E800E03ECB2
:10F8D0006FF00001BC29BC6F800EBC6572EF7CF03C
:10F8E00074EF7CF081EF7CF0010EBC6FB751080F14
:10F8F0007F0BB76FC00E25EC6FF00001B75125EC00
:10F900006FF080B686EF7CF088EF7CF046EF7CF0FD
:10F9100045EF79F0900E686FFF0E696FBAC06AF01C
:10F920006B6B75EC6FF045EF79F0BA51726F736BDA
:10F930007351000AD8B49FEF7CF08AEF7CF07251CB
:10F94000310AD8B4ADEF7AF00E0AD8B455EF79F099
:10F950007C0AD8B441EF7AF0070AD8B472EF7AF093
:10F96000090AD8B498EF7BF01E0AD8B48AEF7AF06F
:10F97000090AD8B4E7EF79F0390AD8B410EF7AF071
:10F98000070AD8B472EF7AF00B0AD8B4DFEF79F037
:10F990001C0AD8B48AEF7AF0070AD8B4CAEF7AF012
:10F9A0000E0AD8B4FCEF79F08AEF7CF000EF00F09B
:10F9B0000048616E6473206F66662074686520700D
:10F9C00069616E6F2C207072657373206B6579624C
:10F9D0006F617264206B657920746F2063616C695C
:10F9E0006272617465206E6F6D696E616C48616CE6
:10F9F0006C556E50726573736564005072657373F5
:10FA000020746865207069616E6F206B65792C20A9
:10FA10007072657373206B6579626F617264206BBD
:10FA2000657920746F2063616C696272617465200E
:10FA30006E6F6D696E616C48616C6C50726573734A
:10FA4000656400743A207761697420666F72207073
:10FA500069616E6F206B6579707265737320616E7A
:10FA600064207265706F72742025642073616D70FC
:10FA70006C65732C206F6E65206576657279202524
:10FA80006475732E0D0A0020202020507265737358
:10FA9000207570706572207075736820627574745B
:10FAA0006F6E206F6E2044657627313820746F208A
:10FAB0007374617274204D49444920706C617920DF
:10FAC00073657175656E63650D0A002020202050F6
:10FAD00072657373206C6F77657220707573682020
:10FAE000627574746F6E206F6E20446576273138AE
:10FAF00020746F2065786974204D49444920706CEA
:10FB000061792073657175656E63650D0A0020204B
:10FB10002020202020204D494449204F7574202D5D
:10FB20003E204D6963726F736F6674204753205790
:10FB30006176657461626C652053796E7468200D1E
:10FB40000A002D2D2D2D2D2D2D2D2D2D2D2D2D2D35
:10FB50002D2D2D2D2D2D2D2D2D2D2D2D2D2D2D2DD5
:10FB60002D2D2D2D2D2D2D2D2D2D2D2D2D2D2D2DC5
:10FB70002D2D2D0D0A00202020204C61756E63680C
:10FB800020507554545920616E64207265636F6E05
:10FB90006E65637420746F207468652056434F4D02
:10FBA00020706F72740D0A00313A207265706F72A6
:10FBB0007420612073696E676C652048616C6C20ED
:10FBC0006566666563742073656E736F7220726517
:10FBD0006164696E672E0D0A0020202020202020FD
:10FBE0002053657269616C20506F7274202D3E2025
:10FBF0005553422053657269616C20506F727420B6
:10FC000028434F4D78290D0A00632F433A20636142
:10FC10006C69627261746520756E7072657373656C
:10FC2000642F707265737365642068616C6C2073F7
:10FC3000656E736F722E0D0A0020202020496E2001
:10FC400074686520686169726C6573732D6D696491
:10FC50006973657269616C2070726F6772616D3A69
:10FC60000D0A002020202020202020536572696189
:10FC70006C20506F7274202D3E20284E6F742043EC
:10FC80006F6E6E6563746564290D0A002020202064
:10FC900073616D706C6552617465203D2025642030
:10FCA000544D523020636F756E7473203D2025646F
:10FCB00075530D0A006E65772073616D706C655227
:10FCC000617465203D20256420544D523020636FBF
:10FCD000756E7473203D20256475530D0A00202035
:10FCE0002020202020204D494449204F7574202D8C
:10FCF0003E20284E6F7420436F6E6E65637465649A
:10FD0000290D0A004E6577206E6F6D696E616C4833
:10FD1000616C6C556E507265737365642076616CAE
:10FD20007565203D2025640D0A00732F533A206429
:10FD3000656372656D656E742F696E6372656D655E
:10FD40006E742073616D706C65526174650D0A008C
:10FD50004E6577206E6F6D696E616C48616C6C509A
:10FD60007265737365642076616C7565203D20252E
:10FD7000640D0A00202020204D494449204F75740D
:10FD8000202D3E20284E6F7420436F6E6E65637485
:10FD90006564290D0A0A00642F443A206465637281
:10FDA000656D656E742F696E6372656D656E742026
:10FDB00064656C74610D0A005768656E20796F7513
:10FDC000206861766520636F6D706C657465207462
:10FDD0006869733A0D0A004C61756E63682068614A
:10FDE00069726C6573732D6D69646973657269619D
:10FDF0006C0D0A004D3A20656E74657220696E7450
:10FE00006F204D696469206D6F64652E0D0A0020B6
:10FE1000202020466C6F7720436F6E74726F6C3AAF
:10FE20002020204E6F6E650D0A0020202020436C9C
:10FE30006F7365206F7574206F66205075747479C8
:10FE40002E0D0A002020202046696C65202D3E20C2
:10FE5000707265666572656E6365730D0A007A3A45
:10FE600020436C65617220746865207465726D69E9
:10FE70006E616C2E0D0A002020202020202020639F
:10FE80006C6F736520686169726C6573730D0A002D
:10FE90002020202053746F70204269742873293AFF
:10FEA00020202020310D0A0020202020426175648E
:10FEB00020526174653A2020393630300D0A002016
:10FEC0002020205061726974793A20202020204E31
:10FED0006F6E650D0A00202020204E6F6D696E61E7
:10FEE0006C20257520746F2025750D0A004D49443E
:10FEF00049202B2048616C6C206566666563742020
:10FF00000D0A005A3A2052657365742070726F634F
:10FF10006573736F722E0D0A00696E4C6162203139
:10FF200031207465726D696E616C200D0A002020AD
:10FF300020204461746120426974733A2020380D96
:10FF40000A006B65792076656C6F63697479203D72
:10FF50002025640D0A00446576656C6F706D656ED2
:10FF60007420426F6172640D0A0054617020612038
:10FF70007069616E6F206B65792E0D0A0048616CA7
:10FF80006C2073656E736F72203D2025640D0A002E
:10FF9000556E6B6E6F776E206B65792025630D0A49
:10FFA000002020202064656C7461203D2025640DB4
:10FFB0000A006E65772064656C7461203D202564BD
:10FFC0000D0A0020202020436C69636B204F4B0DED
:10FFD0000A003F3A2068656C70206D656E750D0AE9
:10FFE000006F3A2020202020206F6B0D0A006F3A0E
:10FFF000206B0D0A000D0A3E20002534642000000D
:020000040020DA
:08000000FFFFFFFFFFFFFFFF00
:020000040030CA
:0E000000FF281F3CFFBF85FF0FC00FE00F4021
:00000001FF
