:020000040000FA
:040000000EEF6FF0A0
:10DD9600C282120001C0C5F002C0C6F0120001C066
:10DDA600C9F002C0CAF0120001C0C7F002C0C8F034
:10DDB60012000A50D76E09C0D6FF1200026E02503A
:10DDC60039EC6FF01200C450046E036AC35003248A
:10DDD600016E000E0420026E1200C2A2F5EF6EF074
:10DDE600F8EF6EF0010EF9EF6EF0000E12009EBA1B
:10DDF600FFEF6EF002EF6FF0010E03EF6FF0000E13
:10DE06001200F2B409EF6FF00CEF6FF0010E0DEF98
:10DE16006FF0000E120000EEBDF0320EEE6AE8065C
:10DE2600FDE15F6A00012EEF79F0010EC26E000E71
:10DE3600C16E260EC06E000EC36E000EC46E1200BA
:10DE4600B4EC6FF05CEC6FF018EC6FF0C9EC6FF0AF
:10DE560015EC70F01200046E045050EC6FF0025096
:10DE660050EC6FF0035050EC6FF01200016E9EA85C
:10DE76003FEF6FF041EF6FF03AEF6FF001C0ADFF8B
:10DE86001200026E02C001F001460146C25001189E
:10DE9600830B0118C26EC2801200016E9EA856EF57
:10DEA6006FF058EF6FF051EF6FF09E9801C0ADFF25
:10DEB6001200700ED36E040ED26E400E9B6ED2AE62
:10DEC60067EF6FF069EF6FF062EF6FF01200D6CF79
:10DED60007F0D7CF08F00850036E0750056E03C051
:10DEE60006F005C001F006C002F012000150030260
:10DEF600F3CF05F0F4CF06F001500402F3500626E6
:10DF060002500302F350062605C001F006C002F0D7
:10DF160012009EAA91EF6FF093EF6FF08CEF6FF007
:10DF2600000E5F6EABA29AEF6FF09CEF6FF09EEF64
:10DF36006FF0AB98AB88AE5012006A0E0001706F9E
:10DF4600000E716F000E606F000E616F68C062F0A8
:10DF560069C063F0700E646F000E656FCCEC70F0F4
:10DF66001200000E896E000E8A6E000E8B6E92688D
:10DF76009368BB0E946E3C0E0F013A6F3F0E396FDD
:10DF8600230E386F000E616EF18E1200D59CFC0ECA
:10DF9600D76E170ED66ED650D7CF01F0026A01C0E3
:10DFA60002F0016A01100001CD6F0250CE6FF294AB
:10DFB600930ED56E120001C003F002C004F0E6EF26
:10DFC6006FF0014A022A01C0D9FF02C0DAFFDF5012
:10DFD600D8A4F0EF6FF0F2EF6FF0E4EF6FF00350BC
:10DFE600015C016E04500258026E1200D00E036EE0
:10DFF600FF0E046E01C005F002C006F003500526B0
:10E006000450062206500AE10A0E055CD8A00EEF5F
:10E0160070F011EF70F0010E12EF70F0000E016E4D
:10E02600026A1200080EB86E900EAB6E240EAC6E2D
:10E03600820EAF6E060EB06E000E016E000E026E00
:10E04600D2EC6EF0000E016E000E026ED7EC6EF092
:10E05600000E016E000E026ECDEC6EF0000E5F6ECD
:10E06600120014BE41EF70F0145006E11304D8B04C
:10E076003FEF70F041EF70F04FEF70F013C015F006
:10E0860014C016F0151E161E154A162A15C013F0D2
:10E0960016C014F053EF70F013C013F014C014F050
:10E0A6001200000E126E000E116E65EF70F010C0B9
:10E0B60003F0046A0EC005F00FC006F0FEEC70F027
:10E0C600114A122A11500C24D96E12500D20DA6E04
:10E0D600DF50106E1050D8A473EF70F075EF70F02B
:10E0E6005AEF70F01200010E076E200E0118021092
:10E0F600D8B480EF70F082EF70F09BEF70F0F70EFF
:10E10600036EFF0E046E01C005F002C006F0035058
:10E11600052604500622065009E1050E055CD8A026
:10E1260097EF70F099EF70F09BEF70F0000E076EAE
:10E1360007C001F0026A12000001BF51C011D8A445
:10E14600A7EF70F0A9EF70F0AFEF70F0BFC021F04D
:10E15600C0C022F0B5EF70F0FF0EBF25216EFF0E96
:10E16600C021226E20C0CFF0000ED06F1EC013F06B
:10E176001FC014F0CF0E156E000E166E21C017F0DC
:10E1860022C018F049EC71F013C01EF014C01FF045
:10E19600120062C066F063C067F0000E0001BE6F39
:10E1A600000EBD6FEAEF70F060C042F061C043F050
:10E1B600660E446E000E456E64C046F065C047F0BC
:10E1C60041EC77F042500001BD274350BE2366C0A4
:10E1D600F6FF67C0F7FFF86A0800F5500009D8A4F3
:10E1E600F7EF70F0F9EF70F0D7EF70F0BDC060F0A8
:10E1F600BEC061F0120005500610D8B405EF71F0EC
:10E2060007EF71F010EF71F005500610D8A40EEF6D
:10E2160071F010EF71F015EF71F00350E1EC6EF054
:10E2260048EF71F020EE04F00550D9260650DA22A8
:10E23600DE50DE10D8B422EF71F024EF71F03FEF1C
:10E2460071F020EE04F00550D9260650DA2210EEC1
:10E2560002F00550E1260650E222DE50E65CE6506A
:10E26600800A0B6EDE50800A0B58D8B03DEF71F075
:10E276003FEF71F048EF71F020EE02F00550D9261D
:10E286000650DA22DE2A000EDD2212000001C3A1AA
:10E296004FEF71F051EF71F05BEF71F015C00CF0BC
:10E2A60016C00DF013C00EF014C00FF054EC70F051
:10E2B60018BE60EF71F062EF71F068EF71F017C091
:10E2C6001CF018C01DF06CEF71F0000E1D6E000EF4
:10E2D6001C6E000E1B6E000E1A6E7EEF71F0000EA5
:10E2E600046E200E036E13C005F014C006F0FEEC9B
:10E2F60070F01A4A1B2A1C501A5C1B50800A196EB1
:10E306001D50800A1958D8A08BEF71F08DEF71F06F
:10E3160072EF71F00001C3B193EF71F095EF71F0F8
:10E326009FEF71F015C00CF016C00DF013C00EF083
:10E3360014C00FF054EC70F015C001F016C002F0D6
:10E34600DEEC6FF01C500124136E1D500220146E7B
:10E35600120009500A100B100C100D100E100F10A1
:10E366001010D8B4B9EF71F0BBEF71F003EF72F093
:10E37600010E116EC9EF71F0D89009360A360B36C8
:10E386000C360D360E360F361036112A10AECEEF7D
:10E3960071F0D0EF71F0BFEF71F00950015C0A50D7
:10E3A60002580B5003580C5004580D5005580E5087
:10E3B60006580F50075810500858D8A0E5EF71F0CE
:10E3C600E7EF71F0F7EF71F00950015E0A50025A5B
:10E3D6000B50035A0C50045A0D50055A0E50065A4B
:10E3E6000F50075A1050085AD89010320F320E327A
:10E3F6000D320C320B320A320932112ED0EF71F087
:10E4060001C001F002C002F003C003F004C004F032
:10E4160005C005F006C006F007C007F008C008F002
:10E42600120020EE11F0070EDE6AE806FDE2095042
:10E436000A100B100C100D100E100F101010D8B47F
:10E4460027EF72F029EF72F07BEF72F0010E196E72
:10E4560037EF72F0D89009360A360B360C360D3681
:10E466000E360F361036192A10AE3CEF72F03EEF1C
:10E4760072F02DEF72F0D89011361236133614362C
:10E4860015361636173618360950015C0A500258EA
:10E496000B5003580C5004580D5005580E50065892
:10E4A6000F50075810500858D8A05CEF72F05EEF76
:10E4B60072F06FEF72F00950015E0A50025A0B506B
:10E4C600035A0C50045A0D50055A0E50065A0F5056
:10E4D600075A1050085A1180D89010320F320E3257
:10E4E6000D320C320B320A320932192E3EEF72F01F
:10E4F60011C001F012C002F013C003F014C004F002
:10E5060015C005F016C006F017C007F018C008F0D1
:10E516001200000E126E08BE95EF72F093EF72F0C5
:10E52600A7EF72F0081E071E061E051E041E031E18
:10E53600021E016C000E022203220422052206227C
:10E5460007220822010E126E10BEAEEF72F0ACEF7B
:10E5560072F0BEEF72F0101E0F1E0E1E0D1E0C1E68
:10E566000B1E0A1E096C000E0A220B220C220D221B
:10E576000E220F22102209500A100B100C100D103B
:10E586000E100F101010D8B4CBEF72F0CDEF72F062
:10E5960015EF73F0010E116EDBEF72F0D8900936AD
:10E5A6000A360B360C360D360E360F361036112A55
:10E5B60010AEE0EF72F0E2EF72F0D1EF72F00950B8
:10E5C600015C0A5002580B5003580C5004580D5069
:10E5D60005580E5006580F50075810500858D8A026
:10E5E600F7EF72F0F9EF72F009EF73F00950015E80
:10E5F6000A50025A0B50035A0C50045A0D50055A31
:10E606000E50065A0F50075A1050085AD89010321A
:10E616000F320E320D320C320B320A320932112E03
:10E62600E2EF72F01250D8B41BEF73F01DEF73F0E7
:10E636002DEF73F0081E071E061E051E041E031E80
:10E64600021E016C000E022203220422052206226B
:10E656000722082201C001F002C002F003C003F045
:10E6660004C004F005C005F006C006F007C007F0B8
:10E6760008C008F01200000E126E10BE47EF73F0CD
:10E6860045EF73F059EF73F0101E0F1E0E1E0D1E90
:10E696000C1E0B1E0A1E096C000E0A220B220C22EF
:10E6A6000D220E220F221022010E126E08BE60EFFE
:10E6B60073F05EEF73F072EF73F0081E071E061E0E
:10E6C600051E041E031E021E016C000E02220322FA
:10E6D60004220522062207220822010E121A20EE23
:10E6E60013F0070EDE6AE806FDE209500A100B1069
:10E6F6000C100D100E100F101010D8B485EF73F01B
:10E7060087EF73F0D9EF73F0010E116E95EF73F08A
:10E71600D89009360A360B360C360D360E360F36BD
:10E726001036112A10AE9AEF73F09CEF73F08BEF50
:10E7360073F0D89013361436153616361736183643
:10E7460019361A360950015C0A5002580B50035804
:10E756000C5004580D5005580E5006580F500758C7
:10E7660010500858D8A0BAEF73F0BCEF73F0CDEF95
:10E7760073F00950015E0A50025A0B50035A0C50AE
:10E78600045A0D50055A0E50065A0F50075A10508B
:10E79600085A1380D89010320F320E320D320C32D6
:10E7A6000B320A320932112E9CEF73F01250D8B494
:10E7B600DFEF73F0E1EF73F0F1EF73F01A1E191E3D
:10E7C600181E171E161E151E141E136C000E14227C
:10E7D600152216221722182219221A2213C001F016
:10E7E60014C002F015C003F016C004F017C005F0FF
:10E7F60018C006F019C007F01AC008F01200000E83
:10E80600166E000E156E000E0F6E000E0E6E0EEFDB
:10E8160074F0084A092A010E146E08C0F6FF09C0F2
:10E82600F7FFF86A0800F550200AD8B41DEF74F017
:10E836001FEF74F03DEF74F0F70E0A6EFF0E0B6ECD
:10E8460008C0F6FF09C0F7FFF86A0800F5500C6E1D
:10E856000D6A0A500C260B500D220D5009E1050ECB
:10E866000C5CD8A039EF74F03BEF74F03DEF74F018
:10E87600000E146E14C010F0116A10501110D8A4B6
:10E8860047EF74F049EF74F00CEF74F053EF74F047
:10E89600000E0F6E010E0E6E084A092A8AEF74F0FA
:10E8A60008C0F6FF09C0F7FFF86A0800F5500A6EBF
:10E8B6000B6A0B50000AD8B463EF74F08AEF74F059
:10E8C6000A502B0AD8B44FEF74F0060AD8B44BEFAF
:10E8D60074F08AEF74F015C001F016C002F0000E55
:10E8E600046E0A0E036E79EC6FF008C0F6FF09C0DD
:10E8F600F7FFF86A0800F550015E000E025A300E66
:10E906000124156E000E0220166E4FEF74F0D00E25
:10E916000A6EFF0E0B6E08C0F6FF09C0F7FFF86A15
:10E926000800F5500C6E0D6A0A500C260B500D228D
:10E936000D500AE10A0E0C5CD8A0A4EF74F0A7EF04
:10E9460074F0010EA8EF74F0000E126E136A1250E6
:10E956001310D8A4B1EF74F0B3EF74F06EEF74F047
:10E966000E500F10D8A4BAEF74F0BCEF74F0CAEFD3
:10E9760074F015C00AF016C00BF00A1E0B1E0A4AE8
:10E986000B2A0AC008F00BC009F0CEEF74F015C0D0
:10E9960008F016C009F012000001C2BFD5EF74F0EE
:10E9A600D7EF74F0D8EF74F0C393C2BFE5EF74F0FD
:10E9B600C25106E1C105D8B0E3EF74F0E5EF74F09B
:10E9C600EBEF74F0000E316E010E306EEFEF74F067
:10E9D600C1C030F0C2C031F0BFC032F0C0C033F0A9
:10E9E60020C034F021C035F022C036F023C037F005
:10E9F60024C038F025C039F026C03AF027C03BF0D5
:10EA0600000E3D6E1F0E3C6E000EEE6F81EF75F030
:10EA16003C06D8A03D06CF0E3C24D96E000E3D2004
:10EA2600DA6E34C001F035C002F036C003F037C0EC
:10EA360004F038C005F039C006F03AC007F03BC014
:10EA460008F00A0E096E000E0A6E000E0B6E000E1E
:10EA56000C6E000E0D6E000E0E6E000E0F6E000E8A
:10EA6600106EACEC71F001C028F002C029F003C0B2
:10EA76002AF004C02BF005C02CF006C02DF007C00C
:10EA86002EF008C02FF02850300FDF6E3006D8A0C9
:10EA960031063206D8A0330634C001F035C002F084
:10EAA60036C003F037C004F038C005F039C006F0B0
:10EAB6003AC007F03BC008F00A0E096E000E0A6E57
:10EAC600000E0B6E000E0C6E000E0D6E000E0E6E1E
:10EAD600000E0F6E000E106E14EC72F001C034F0D2
:10EAE60002C035F003C036F004C037F005C038F078
:10EAF60006C039F007C03AF008C03BF03C503D1064
:10EB0600D8B488EF75F08AEF75F0BBEF75F0345026
:10EB1600351036103710381039103A103B10D8A47B
:10EB260097EF75F099EF75F00BEF75F031BEA6EF24
:10EB360075F0315006E13004D8B0A4EF75F0A6EFB9
:10EB460075F00BEF75F033BEB1EF75F0335008E199
:10EB56003204D8A0B1EF75F0B3EF75F0BBEF75F0E6
:10EB66000001C3B3B9EF75F0BBEF75F00BEF75F0AD
:10EB76001EC013F01FC014F0CF0E3C24156E000EFD
:10EB86003D20166E32C017F033C018F049EC71F014
:10EB960013C01EF014C01FF0120020C038F021C0B0
:10EBA60039F022C03AF023C03BF024C03CF025C027
:10EBB6003DF026C03EF027C03FF03FBEE5EF75F0C2
:10EBC600E8EF75F0010EE9EF75F0000E366E376A64
:10EBD60036503710D8B4F2EF75F0F4EF75F004EF55
:10EBE60076F03F1E3E1E3D1E3C1E3B1E3A1E391E43
:10EBF600386C000E39223A223B223C223D223E222C
:10EC06003F220001C2BF0AEF76F00CEF76F00DEF5F
:10EC160076F0C393C2BF1AEF76F0C25106E1C10582
:10EC2600D8B018EF76F01AEF76F020EF76F0000EF7
:10EC3600336E010E326E24EF76F0C1C032F0C2C0E0
:10EC460033F0BFC034F0C0C035F036503710D8A40A
:10EC56002FEF76F031EF76F038EF76F0C3A536EF8A
:10EC660076F038EF76F03BEF76F03406D8A035062E
:10EC7600000E416E1F0E406E000EEE6FBFEF76F077
:10EC86004006D8A04106CF0E4024D96E000E412082
:10EC9600DA6E38C001F039C002F03AC003F03BC06A
:10ECA60004F03CC005F03DC006F03EC007F03FC092
:10ECB60008F00A0E096E000E0A6E000E0B6E000EAC
:10ECC6000C6E000E0D6E000E0E6E000E0F6E000E18
:10ECD600106E8CEC72F001C028F002C029F003C05F
:10ECE6002AF004C02BF005C02CF006C02DF007C09A
:10ECF6002EF008C02FF028C013F02AC014F034EC10
:10ED060070F01350300FDF6E3206D8A0330634068B
:10ED1600D8A0350638C001F039C002F03AC003F079
:10ED26003BC004F03CC005F03DC006F03EC007F015
:10ED36003FC008F00A0E096E000E0A6E000E0B6E3A
:10ED4600000E0C6E000E0D6E000E0E6E000E0F6E97
:10ED5600000E106E3EEC73F001C038F002C039F0C0
:10ED660003C03AF004C03BF005C03CF006C03DF0DD
:10ED760007C03EF008C03FF041BECAEF76F04150F2
:10ED860008E14004D8A0CAEF76F0CCEF76F0FDEFAC
:10ED960076F0385039103A103B103C103D103E10BA
:10EDA6003F10D8A4D9EF76F0DBEF76F043EF76F09C
:10EDB60033BEE8EF76F0335006E13204D8B0E6EF22
:10EDC60076F0E8EF76F043EF76F035BEF3EF76F0C7
:10EDD600355008E13404D8A0F3EF76F0F5EF76F07D
:10EDE600FDEF76F00001C3B3FBEF76F0FDEF76F0B2
:10EDF60043EF76F036503710D8A404EF77F006EFDD
:10EE060077F00EEF77F00001C3A50CEF77F00EEF69
:10EE160077F02CEF77F04006D8A041063650371031
:10EE2600D8A418EF77F01AEF77F020EF77F0000EFE
:10EE3600316E2B0E306E24EF77F0000E316E2D0EF4
:10EE4600306ECF0E4024D96E000E4120DA6E30C0EF
:10EE5600DFFF1EC013F01FC014F0CF0E4024156E46
:10EE6600000E4120166E34C017F035C018F049EC7C
:10EE760071F013C01EF014C01FF0120044C0D9FF79
:10EE860045C0DAFFDECFF6FFDDCFF7FFF86A0800F0
:10EE9600F550250AD8A452EF77F054EF77F011EF2A
:10EEA60079F044C0D9FF45C0DAFFDE2A000EDD2224
:10EEB600000E0001C06F000EBF6FBFC0C3F0C0C020
:10EEC600C4F0C169C26944C0D9FF45C0DAFFDECFCC
:10EED600F6FFDDCFF7FFF86A0800F5502A0AD8A436
:10EEE60077EF77F079EF77F0A2EF77F044C0D9FFAC
:10EEF60045C0DAFFDE2A000EDD2246C0D9FF47C034
:10EF0600DAFFDFCF48F0020EDE26DFCF49F0000E33
:10EF1600DD2248C0D9FF49C0DAFFDECFBFF0DDCF22
:10EF2600C0F0C0BF9BEF77F099EF77F0E6EF77F090
:10EF3600C381BF6DC01FD8B0C02BE6EF77F044C0C9
:10EF4600D9FF45C0DAFFDECF08F0DDCF09F002ECCD
:10EF560074F008C0BFF009C0C0F0B9EF77F044C044
:10EF6600D9FF45C0DAFFDE2A000EDD22D00E486E3C
:10EF7600FF0E496E44C0D9FF45C0DAFFDECFF6FF6B
:10EF8600DDCFF7FFF86A0800F5504A6E4B6A485025
:10EF96004A2649504B224B500AE10A0E4A5CD8A039
:10EFA600D7EF77F0DAEF77F0010EDBEF77F0000EB0
:10EFB6005C6E5D6A5C505D10D8A4E4EF77F0E6EF16
:10EFC60077F0B2EF77F044C0D9FF45C0DAFFDECF65
:10EFD600F6FFDDCFF7FFF86A0800F550630AD8A4FC
:10EFE600F7EF77F0F9EF77F020EF78F044C0D9FF2C
:10EFF60045C0DAFFDE2A000EDD2246C0D9FF47C033
:10F00600DAFFDFCF48F0020EDE26DFCF49F0000E32
:10F01600DD2248C0D9FF49C0DAFFDF505E6E42C02C
:10F026001EF043C01FF05EC020F09FEC70F01EC0C3
:10F0360042F01FC043F02DEF79F044C0D9FF45C020
:10F04600DAFFDECFF6FFDDCFF7FFF86A0800F550EE
:10F05600640AD8B431EF78F033EF78F046EF78F001
:10F0660044C0D9FF45C0DAFFDECFF6FFDDCFF7FF9C
:10F07600F86A0800F550690AD8A444EF78F046EF1C
:10F0860078F086EF78F044C0D9FF45C0DAFFDE2A73
:10F09600000EDD2246C0D9FF47C0DAFFDFCF48F0B9
:10F0A600020EDE26DFCF49F0000EDD2248C0D9FF72
:10F0B60049C0DAFFDECF4CF0DDCF4DF0000E4DBE7D
:10F0C600FF0E4E6E4F6E506E516E526E536E42C0B4
:10F0D6001EF043C01FF04CC020F04DC021F04EC0C2
:10F0E60022F04FC023F050C024F051C025F052C08A
:10F0F60026F053C027F0D0EC75F01EC042F01FC0BA
:10F1060043F02DEF79F044C0D9FF45C0DAFFDECFDA
:10F11600F6FFDDCFF7FFF86A0800F550750AD8A4A8
:10F1260097EF78F099EF78F0DAEF78F044C0D9FFEE
:10F1360045C0DAFFDE2A000EDD2246C0D9FF47C0F1
:10F14600DAFFDFCF48F0020EDE26DFCF49F0000EF1
:10F15600DD2248C0D9FF49C0DAFFDECF4AF0DDCF55
:10F166004BF04AC054F04BC055F0566A576A586A7D
:10F17600596A5A6A5B6A42C01EF043C01FF054C007
:10F1860020F055C021F056C022F057C023F058C0D9
:10F1960024F059C025F05AC026F05BC027F0CFEC0A
:10F1A60074F01EC042F01FC043F02DEF79F044C04A
:10F1B600D9FF45C0DAFFDECFF6FFDDCFF7FFF86AED
:10F1C6000800F550250AD8A4EBEF78F0EDEF78F0BB
:10F1D60004EF79F044C0D9FF45C0DAFFDE2A000EFD
:10F1E600DD22000E046E250E036E42C005F043C0FC
:10F1F60006F0FEEC70F0000E436E010E426E2DEF2F
:10F2060079F044C0D9FF45C0DAFFDE2A000EDD22C0
:10F21600000E436E000E426E2DEF79F044C0D9FF0A
:10F2260045C0DAFFDECFF6FFDDCFF7FFF86A08004C
:10F23600F550036E046A42C005F043C006F0FEECCA
:10F2460070F044C0D9FF45C0DAFFDE2A000EDD2289
:10F25600FEEF78F01200000E0001B56F3F0EB66F9C
:10F266001D0EB46F050EB76F030EBB6FE80EBA6FB7
:10F2760023EC6FF0010E44EC6FF0560E0001686F40
:10F28600FF0E696FA0EC6FF0190E0001686FFF0E9C
:10F29600696FA0EC6FF0ED0E0001686FFE0E696FEE
:10F2A600A0EC6FF0F50E0001686FFF0E696FA0EC21
:10F2B6006FF0CBEC6EF0F0EC6EF00009D8B466EFB0
:10F2C60079F068EF79F05EEF79F0E6EC6EF002C067
:10F2D60001F0026A01500001B66FFAEC6EF0000907
:10F2E600D8B478EF79F07AEF79F070EF79F08CECAA
:10F2F6006FF00001B86F95EF7CF0420E686FFB0E61
:10F30600696FA0EC6FF0D60E0001686FFE0E696F94
:10F31600B6C06AF06B6BB4C06CF06D6BA0EC6FF0AE
:10F32600A10E0001686FFF0E696FB7C06AF06B6BC4
:10F33600A0EC6FF08C0E0001686FFC0E696FBAC00E
:10F346006AF0BBC06BF0BAC06CF0BBC06DF0A0EC4D
:10F356006FF0420E0001686FFB0E696FA0EC6FF054
:10F36600D20E0001686FFF0E696FA0EC6FF0EE0E13
:10F376000001686FFF0E696FA0EC6FF0030E0001CD
:10F38600686FFF0E696FA0EC6FF05E0E0001686F8C
:10F39600FE0E696FA0EC6FF0970E0001686FFD0E10
:10F3A600696FA0EC6FF02A0E0001686FFD0E696FA1
:10F3B600A0EC6FF0090E0001686FFC0E696FA0ECFF
:10F3C6006FF0A80E0001686FFB0E696FA0EC6FF07E
:10F3D600430E0001686FFA0E696F000E6B6F400EE8
:10F3E6006A6FBAC06CF0BBC06DF0A0EC6FF0F40EA3
:10F3F6000001686FFD0E696FA0EC6FF0420E000110
:10F40600686FFB0E696FA0EC6FF070EF79F0E10E9C
:10F41600686FFF0E696FA0EC6FF070EF79F0000E69
:10F42600BC6F950E686FFD0E696FA0EC6FF0000162
:10F43600BC2B270EBC6522EF7AF024EF7AF014EF8E
:10F446007AF0FF0070EF79F0000EBC6F950E686FD2
:10F45600FD0E696FA0EC6FF00001BC2B270EBC659A
:10F4660037EF7AF039EF7AF029EF7AF070EF79F02A
:10F47600B10E686FF90E696FA0EC6FF0FAEC6EF0E2
:10F486000009D8B449EF7AF04BEF7AF041EF7AF001
:10F496008CEC6FF0CBEC6EF0F0EC6EF00009D8B4AB
:10F4A60057EF7AF059EF7AF04FEF7AF0E6EC6EF01C
:10F4B60002C001F0026A01500001B66F040E686FC7
:10F4C600FD0E696FB6C06AF06B6BA0EC6FF070EF63
:10F4D60079F0FB0E686FF90E696FA0EC6FF0FAEC2D
:10F4E6006EF00009D8B47AEF7AF07CEF7AF072EF1A
:10F4F6007AF08CEC6FF0CBEC6EF0F0EC6EF000096D
:10F50600D8B488EF7AF08AEF7AF080EF7AF0E6ECFA
:10F516006EF002C001F0026A01500001B46F500E95
:10F52600686FFD0E696FB4C06AF06B6BA0EC6FF08C
:10F5360070EF79F0640EB819D8A4A4EF7AF0A6EFAC
:10F546007AF0A9EF7AF0B707AAEF7AF0B72BB20EE6
:10F55600686FFF0E696FB7C06AF06B6BA0EC6FF057
:10F5660070EF79F0730EB819D8A4BCEF7AF0BEEF3D
:10F576007AF0C4EF7AF0640EBA5F000EBB5BC8EF98
:10F586007AF0640EBA27000EBB23B50E686FFC0E28
:10F59600696FBAC06AF0BBC06BF0BAC06CF0BBC092
:10F5A6006DF0A0EC6FF070EF79F08B84CBEC6EF021
:10F5B6008B94F0EC6EF00009D8B4E4EF7AF0E6EF45
:10F5C6007AF0DCEF7AF07D0E0001686FFF0E696F4E
:10F5D600E6EC6EF0025000016A6F6B6BA0EC6FF008
:10F5E60070EF79F06A0E686FFF0E696FA0EC6FF02E
:10F5F60019EF7BF06AEC6FF00001BA51015EBB5166
:10F60600025AFF0E0124096EFF0E02200A6EDCEC80
:10F616006EF0F294CBEC6EF004EC6FF00009D8B407
:10F6260017EF7BF019EF7BF00FEF7BF0E6EC6EF057
:10F6360002C001F0026A0001B751B6C072F0736BE6
:10F64600725F000E735B0150725D02507359D8A051
:10F656002FEF7BF031EF7BF0FDEF7AF0000EBC6F01
:10F66600740EBC25D96EDA6A000EDA22E6EC6EF06C
:10F6760002C001F0026A0150DF6E6AEC6FF0000111
:10F68600BA51015EBB51025AFF0E0124096EFF0EEC
:10F6960002200A6EDCEC6EF0F2948B84CBEC6EF0FA
:10F6A6008B9404EC6FF00009D8B45CEF7BF05EEF4E
:10F6B6007BF054EF7BF00001BC2B3F0EBC6566EF80
:10F6C6007BF068EF7BF033EF7BF0000EBC6FFA0E39
:10F6D600686FFF0E696F740EBC25D96EDA6A000E6C
:10F6E600DA22DF50726F72516A6F6B6BA0EC6FF0AB
:10F6F6000001BC2B3F0EBC6583EF7BF085EF7BF0F2
:10F706006AEF7BF03F0E686FFB0E696FA0EC6FF03F
:10F71600420E0001686FFF0E696F000E6B6F000EE0
:10F726006A6FA0EC6FF070EF79F0D70E686FFD0E80
:10F73600696FA0EC6FF03D0E0001686FFC0E696FFB
:10F74600A0EC6FF0440E0001686FFE0E696FA0EC2E
:10F756006FF0A80E0001686FFE0E696FA0EC6FF0E7
:10F766002E0E0001686FFF0E696FA0EC6FF0BF0EE2
:10F776000001686FFE0E696FA0EC6FF0900E00013D
:10F78600686FFE0E696FA0EC6FF00F0E0001686FD8
:10F79600FE0E696FA0EC6FF0C30E0001686FFF0EDE
:10F7A600696FA0EC6FF0670E0001686FFC0E696F61
:10F7B600A0EC6FF0740E0001686FFD0E696FA0EC8F
:10F7C6006FF0B80E0001686FFD0E696FA0EC6FF068
:10F7D6002A0E0001686FFE0E696FA0EC6FF0390EFD
:10F7E6000001686FFC0E696FA0EC6FF0D90E000186
:10F7F600686FFB0E696FA0EC6FF00E0E0001686F6C
:10F80600FB0E696FA0EC6FF0870E0001686FFA0EB1
:10F81600696FA0EC6FF0CB0E0001686FFA0E696F8E
:10F82600A0EC6FF0390E0001686FFC0E696FA0EC5A
:10F836006FF0630E0001686FFC0E696FA0EC6FF04D
:10F84600DE0E0001686FFC0E696FA0EC6FF0770E9C
:10F856000001686FFE0E696FA0EC6FF0760E000176
:10F86600686FFB0E696FA0EC6FF0400E0001B96F78
:10F87600000EB56F80B442EF7CF044EF7CF03DEFB4
:10F886007CF081EF7CF0B9C002F0690E036E900E39
:10F896002EEC6FF06AEC6FF0AF0E0124096E3C0E91
:10F8A60002200A6EDCEC6EF0F29404EC6FF00009B4
:10F8B600D8B460EF7CF062EF7CF058EF7CF0B9C012
:10F8C60002F0690E036E800E2EEC6FF00001B9296E
:10F8D600B96F4C0EB96572EF7CF074EF7CF081EF76
:10F8E6007CF0400EB96FB551080F7F0BB56FC00E97
:10F8F60050EC6FF00001B55150EC6FF080B686EF1A
:10F906007CF088EF7CF046EF7CF070EF79F0900E9B
:10F91600686FFF0E696FB8C06AF06B6BA0EC6FF092
:10F9260070EF79F0B851726F736B7351000AD8B4E7
:10F936009FEF7CF08AEF7CF07251310AD8B4D8EF91
:10F946007AF00E0AD8B480EF79F07C0AD8B46CEF5E
:10F956007AF0070AD8B49DEF7AF0090AD8B498EF7E
:10F966007BF01E0AD8B4B5EF7AF0090AD8B412EFC4
:10F976007AF0390AD8B43BEF7AF0070AD8B49DEF8B
:10F986007AF00B0AD8B40AEF7AF01C0AD8B4B5EFAD
:10F996007AF0070AD8B4F5EF7AF00E0AD8B427EF52
:10F9A6007AF08AEF7CF000EF00F00048616E647335
:10F9B600206F666620746865207069616E6F2C2002
:10F9C6007072657373206B6579626F617264206B08
:10F9D600657920746F2063616C6962726174652059
:10F9E6006E6F6D696E616C48616C6C556E507265B8
:10F9F6007373656400507265737320746865207054
:10FA060069616E6F206B65792C2070726573732047
:10FA16006B6579626F617264206B657920746F2003
:10FA260063616C696272617465206E6F6D696E6187
:10FA36006C48616C6C5072657373656400743A202F
:10FA46007761697420666F72207069616E6F206BD2
:10FA56006579707265737320616E64207265706F6C
:10FA660072742025642073616D706C65732C206F31
:10FA76006E6520657665727920256475732E0D0A8C
:10FA86000020202020507265737320757070657297
:10FA9600207075736820627574746F6E206F6E20A7
:10FAA60044657627313820746F2073746172742030
:10FAB6004D49444920706C61792073657175656E96
:10FAC60063650D0A00202020205072657373206C38
:10FAD6006F776572207075736820627574746F6EC7
:10FAE600206F6E2044657627313820746F20657844
:10FAF6006974204D49444920706C617920736571A1
:10FB060075656E63650D0A002020202020202020C8
:10FB16004D494449204F7574202D3E204D6963722E
:10FB26006F736F6674204753205761766574616200
:10FB36006C652053796E7468200D0A002D2D2D2DCD
:10FB46002D2D2D2D2D2D2D2D2D2D2D2D2D2D2D2DDF
:10FB56002D2D2D2D2D2D2D2D2D2D2D2D2D2D2D2DCF
:10FB66002D2D2D2D2D2D2D2D2D2D2D2D2D0D0A002F
:10FB7600202020204C61756E6368205075545459BE
:10FB860020616E64207265636F6E6E6563742074A7
:10FB96006F207468652056434F4D20706F72740D48
:10FBA6000A00313A207265706F72742061207369A1
:10FBB6006E676C652048616C6C206566666563746B
:10FBC6002073656E736F722072656164696E672E4D
:10FBD6000D0A002020202020202020536572696114
:10FBE6006C20506F7274202D3E2055534220536571
:10FBF6007269616C20506F72742028434F4D7829CA
:10FC06000D0A00632F433A2063616C696272617466
:10FC16006520756E707265737365642F7072657397
:10FC26007365642068616C6C2073656E736F722EE9
:10FC36000D0A0020202020496E2074686520686126
:10FC460069726C6573732D6D696469736572696138
:10FC56006C2070726F6772616D3A0D0A0020202069
:10FC6600202020202053657269616C20506F7274C9
:10FC7600202D3E20284E6F7420436F6E6E65637490
:10FC86006564290D0A002020202073616D706C6563
:10FC960052617465203D20256420544D5230206306
:10FCA6006F756E7473203D20256475530D0A006EC2
:10FCB60065772073616D706C6552617465203D20B7
:10FCC600256420544D523020636F756E7473203D49
:10FCD60020256475530D0A00202020202020202096
:10FCE6004D494449204F7574202D3E20284E6F748F
:10FCF60020436F6E6E6563746564290D0A004E6558
:10FD060077206E6F6D696E616C48616C6C556E50D4
:10FD16007265737365642076616C7565203D202578
:10FD2600640D0A00732F533A2064656372656D652E
:10FD36006E742F696E6372656D656E742073616D86
:10FD4600706C65526174650D0A004E6577206E6FA2
:10FD56006D696E616C48616C6C5072657373656435
:10FD66002076616C7565203D2025640D0A002020F3
:10FD760020204D494449204F7574202D3E20284EA1
:10FD86006F7420436F6E6E6563746564290D0A0A8D
:10FD960000642F443A2064656372656D656E742F46
:10FDA600696E6372656D656E742064656C74610D51
:10FDB6000A005768656E20796F7520686176652040
:10FDC600636F6D706C65746520746869733A0D0AAB
:10FDD600004C61756E636820686169726C65737347
:10FDE6002D6D69646973657269616C0D0A004D3A1F
:10FDF60020656E74657220696E746F204D69646942
:10FE0600206D6F64652E0D0A0020202020466C6F41
:10FE16007720436F6E74726F6C3A2020204E6F6E9F
:10FE2600650D0A0020202020436C6F7365206F75D6
:10FE360074206F662050757474792E0D0A00202088
:10FE4600202046696C65202D3E20707265666572BD
:10FE5600656E6365730D0A007A3A20436C656172BC
:10FE660020746865207465726D696E616C2E0D0A6A
:10FE7600002020202020202020636C6F73652068DE
:10FE86006169726C6573730D0A002020202053741B
:10FE96006F70204269742873293A20202020310D82
:10FEA6000A00202020204261756420526174653A60
:10FEB6002020393630300D0A002020202050617273
:10FEC6006974793A20202020204E6F6E650D0A0055
:10FED600202020204E6F6D696E616C202575207480
:10FEE6006F2025750D0A004D494449202B20486195
:10FEF6006C6C20656666656374200D0A005A3A20AC
:10FF060052657365742070726F636573736F722EBA
:10FF16000D0A00696E4C6162203131207465726D84
:10FF2600696E616C200D0A002020202044617461F6
:10FF360020426974733A2020380D0A006B657920D7
:10FF460076656C6F63697479203D2025640D0A001F
:10FF5600446576656C6F706D656E7420426F617274
:10FF6600640D0A005461702061207069616E6F2013
:10FF76006B65792E0D0A0048616C6C2073656E7393
:10FF86006F72203D2025640D0A00556E6B6E6F77EB
:10FF96006E206B65792025630D0A002020202064E1
:10FFA600656C7461203D2025640D0A006E6577201E
:10FFB60064656C7461203D2025640D0A00202020B4
:10FFC60020436C69636B204F4B0D0A003F3A206853
:10FFD600656C70206D656E750D0A006F3A202020E5
:10FFE6002020206F6B0D0A006F3A206B0D0A000D62
:0AFFF6000A3E2000253464200000BC
:020000040020DA
:08000000FFFFFFFFFFFFFFFF00
:020000040030CA
:0E000000FF281F3CFFBF85FF0FC00FE00F4021
:00000001FF
